{
  "contractName": "TokenTest",
  "abi": [
    {
      "inputs": [],
      "payable": false,
      "stateMutability": "nonpayable",
      "type": "constructor"
    },
    {
      "constant": true,
      "inputs": [],
      "name": "totalSupply",
      "outputs": [
        {
          "internalType": "uint256",
          "name": "",
          "type": "uint256"
        }
      ],
      "payable": false,
      "stateMutability": "view",
      "type": "function"
    }
  ],
  "bytecode": "0x6080604052348015600f57600080fd5b50620f42406000819055506084806100286000396000f3fe6080604052348015600f57600080fd5b506004361060285760003560e01c806318160ddd14602d575b600080fd5b60336049565b6040518082815260200191505060405180910390f35b6000548156fea265627a7a72315820c491e4f1258ffbea6699ef17dba97ea4065a5e8db0ebf69d3adb4921fda5fa1964736f6c63430005100032",
  "source": "// SPDX-License-Identifier: MatiasArmani\r\npragma solidity >=0.4.22 <0.9.0;\r\n\r\ncontract TokenTest {\r\n    // Constructor\r\n    // Set the total number of tokens\r\n    // Read the total amount of tokens\r\n    uint256 public totalSupply;\r\n\r\n    constructor () public{\r\n        totalSupply = 1000000;\r\n    }\r\n}",
  "sourcePath": "D:/Usuario/Descargas/tokentest/contracts/TokenTest.sol",
  "compiler": {
    "name": "solc",
    "version": "0.5.16+commit.9c3226ce.Emscripten.clang"
  },
  "schemaVersion": "3.3.4",
  "updatedAt": "2021-03-01T22:01:40.333Z",
  "networkType": "ethereum",
  "devdoc": {
    "methods": {}
  },
  "userdoc": {
    "methods": {}
  }
}